{
  "_format": "hh-sol-artifact-1",
  "contractName": "Splitwise",
  "sourceName": "contracts/mycontract.sol",
  "abi": [
    {
      "inputs": [
        {
          "internalType": "address",
          "name": "_creditor",
          "type": "address"
        },
        {
          "internalType": "int32",
          "name": "_amount",
          "type": "int32"
        }
      ],
      "name": "add_IOU",
      "outputs": [
        {
          "internalType": "bool",
          "name": "res",
          "type": "bool"
        }
      ],
      "stateMutability": "nonpayable",
      "type": "function"
    },
    {
      "inputs": [],
      "name": "getLedger",
      "outputs": [
        {
          "components": [
            {
              "components": [
                {
                  "internalType": "address",
                  "name": "creditor",
                  "type": "address"
                },
                {
                  "internalType": "int32",
                  "name": "amount",
                  "type": "int32"
                },
                {
                  "internalType": "uint256",
                  "name": "creditor_id",
                  "type": "uint256"
                },
                {
                  "internalType": "bool",
                  "name": "valid",
                  "type": "bool"
                }
              ],
              "internalType": "struct Splitwise.IOU[]",
              "name": "IOUs",
              "type": "tuple[]"
            },
            {
              "internalType": "address",
              "name": "debtor",
              "type": "address"
            },
            {
              "internalType": "uint256",
              "name": "id",
              "type": "uint256"
            },
            {
              "internalType": "bool",
              "name": "valid",
              "type": "bool"
            }
          ],
          "internalType": "struct Splitwise.Debtor[]",
          "name": "_ledgerArr",
          "type": "tuple[]"
        }
      ],
      "stateMutability": "view",
      "type": "function"
    },
    {
      "inputs": [
        {
          "internalType": "address",
          "name": "debtor",
          "type": "address"
        },
        {
          "internalType": "address",
          "name": "creditor",
          "type": "address"
        }
      ],
      "name": "lookup",
      "outputs": [
        {
          "internalType": "int32",
          "name": "ret",
          "type": "int32"
        }
      ],
      "stateMutability": "view",
      "type": "function"
    }
  ],
  "bytecode": "0x608060405234801561001057600080fd5b50611ac0806100206000396000f3fe608060405234801561001057600080fd5b50600436106100415760003560e01c8063713584a614610046578063ada187c414610076578063f36f235d146100a6575b600080fd5b610060600480360381019061005b919061153d565b6100c4565b60405161006d9190611599565b60405180910390f35b610090600480360381019061008b91906115e0565b61015a565b60405161009d919061163b565b60405180910390f35b6100ae61116b565b6040516100bb91906118c5565b60405180910390f35b60008060008473ffffffffffffffffffffffffffffffffffffffff1673ffffffffffffffffffffffffffffffffffffffff16815260200190815260200160002060008373ffffffffffffffffffffffffffffffffffffffff1673ffffffffffffffffffffffffffffffffffffffff16815260200190815260200160002060000160149054906101000a900460030b905092915050565b60008273ffffffffffffffffffffffffffffffffffffffff163373ffffffffffffffffffffffffffffffffffffffff16036101ca576040517f08c379a00000000000000000000000000000000000000000000000000000000081526004016101c190611944565b60405180910390fd5b60001515600160003373ffffffffffffffffffffffffffffffffffffffff1673ffffffffffffffffffffffffffffffffffffffff16815260200190815260200160002060030160009054906101000a900460ff161515036106e357600060405180608001604052808573ffffffffffffffffffffffffffffffffffffffff1681526020018460030b8152602001600081526020016001151581525090506000600160003373ffffffffffffffffffffffffffffffffffffffff1673ffffffffffffffffffffffffffffffffffffffff1681526020019081526020016000209050816000803373ffffffffffffffffffffffffffffffffffffffff1673ffffffffffffffffffffffffffffffffffffffff16815260200190815260200160002060008773ffffffffffffffffffffffffffffffffffffffff1673ffffffffffffffffffffffffffffffffffffffff16815260200190815260200160002060008201518160000160006101000a81548173ffffffffffffffffffffffffffffffffffffffff021916908373ffffffffffffffffffffffffffffffffffffffff16021790555060208201518160000160146101000a81548163ffffffff021916908360030b63ffffffff1602179055506040820151816001015560608201518160020160006101000a81548160ff0219169083151502179055509050508060000182908060018154018082558091505060019003906000526020600020906003020160009091909190915060008201518160000160006101000a81548173ffffffffffffffffffffffffffffffffffffffff021916908373ffffffffffffffffffffffffffffffffffffffff16021790555060208201518160000160146101000a81548163ffffffff021916908360030b63ffffffff1602179055506040820151816001015560608201518160020160006101000a81548160ff0219169083151502179055505050338160010160006101000a81548173ffffffffffffffffffffffffffffffffffffffff021916908373ffffffffffffffffffffffffffffffffffffffff160217905550600280549050816002018190555060018160030160006101000a81548160ff0219169083151502179055506002819080600181540180825580915050600190039060005260206000209060040201600090919091909150600082018160000190805461053f92919061133c565b506001820160009054906101000a900473ffffffffffffffffffffffffffffffffffffffff168160010160006101000a81548173ffffffffffffffffffffffffffffffffffffffff021916908373ffffffffffffffffffffffffffffffffffffffff160217905550600282015481600201556003820160009054906101000a900460ff168160030160006101000a81548160ff021916908315150217905550505080600160003373ffffffffffffffffffffffffffffffffffffffff1673ffffffffffffffffffffffffffffffffffffffff168152602001908152602001600020600082018160000190805461063692919061133c565b506001820160009054906101000a900473ffffffffffffffffffffffffffffffffffffffff168160010160006101000a81548173ffffffffffffffffffffffffffffffffffffffff021916908373ffffffffffffffffffffffffffffffffffffffff160217905550600282015481600201556003820160009054906101000a900460ff168160030160006101000a81548160ff021916908315150217905550905050600192505050611165565b600015156000803373ffffffffffffffffffffffffffffffffffffffff1673ffffffffffffffffffffffffffffffffffffffff16815260200190815260200160002060008573ffffffffffffffffffffffffffffffffffffffff1673ffffffffffffffffffffffffffffffffffffffff16815260200190815260200160002060020160009054906101000a900460ff16151503610a7757600060405180608001604052808573ffffffffffffffffffffffffffffffffffffffff1681526020018460030b81526020016002600160003373ffffffffffffffffffffffffffffffffffffffff1673ffffffffffffffffffffffffffffffffffffffff168152602001908152602001600020600201548154811061080257610801611964565b5b9060005260206000209060040201600001805490508152602001600115158152509050806000803373ffffffffffffffffffffffffffffffffffffffff1673ffffffffffffffffffffffffffffffffffffffff16815260200190815260200160002060008673ffffffffffffffffffffffffffffffffffffffff1673ffffffffffffffffffffffffffffffffffffffff16815260200190815260200160002060008201518160000160006101000a81548173ffffffffffffffffffffffffffffffffffffffff021916908373ffffffffffffffffffffffffffffffffffffffff16021790555060208201518160000160146101000a81548163ffffffff021916908360030b63ffffffff1602179055506040820151816001015560608201518160020160006101000a81548160ff0219169083151502179055509050506002600160003373ffffffffffffffffffffffffffffffffffffffff1673ffffffffffffffffffffffffffffffffffffffff168152602001908152602001600020600201548154811061099557610994611964565b5b906000526020600020906004020160000181908060018154018082558091505060019003906000526020600020906003020160009091909190915060008201518160000160006101000a81548173ffffffffffffffffffffffffffffffffffffffff021916908373ffffffffffffffffffffffffffffffffffffffff16021790555060208201518160000160146101000a81548163ffffffff021916908360030b63ffffffff1602179055506040820151816001015560608201518160020160006101000a81548160ff02191690831515021790555050506001915050611165565b6000826000803373ffffffffffffffffffffffffffffffffffffffff1673ffffffffffffffffffffffffffffffffffffffff16815260200190815260200160002060008673ffffffffffffffffffffffffffffffffffffffff1673ffffffffffffffffffffffffffffffffffffffff16815260200190815260200160002060000160149054906101000a900460030b610b1091906119c2565b60030b1215610b54576040517f08c379a0000000000000000000000000000000000000000000000000000000008152600401610b4b90611a6a565b60405180910390fd5b816000803373ffffffffffffffffffffffffffffffffffffffff1673ffffffffffffffffffffffffffffffffffffffff16815260200190815260200160002060008573ffffffffffffffffffffffffffffffffffffffff1673ffffffffffffffffffffffffffffffffffffffff16815260200190815260200160002060000160148282829054906101000a900460030b610bee91906119c2565b92506101000a81548163ffffffff021916908360030b63ffffffff160217905550816002600160003373ffffffffffffffffffffffffffffffffffffffff1673ffffffffffffffffffffffffffffffffffffffff1681526020019081526020016000206002015481548110610c6657610c65611964565b5b90600052602060002090600402016000016000803373ffffffffffffffffffffffffffffffffffffffff1673ffffffffffffffffffffffffffffffffffffffff16815260200190815260200160002060008673ffffffffffffffffffffffffffffffffffffffff1673ffffffffffffffffffffffffffffffffffffffff1681526020019081526020016000206001015481548110610d0757610d06611964565b5b906000526020600020906003020160000160148282829054906101000a900460030b610d3391906119c2565b92506101000a81548163ffffffff021916908360030b63ffffffff16021790555060008060003373ffffffffffffffffffffffffffffffffffffffff1673ffffffffffffffffffffffffffffffffffffffff16815260200190815260200160002060008573ffffffffffffffffffffffffffffffffffffffff1673ffffffffffffffffffffffffffffffffffffffff16815260200190815260200160002060000160149054906101000a900460030b60030b03610fa75760008060003373ffffffffffffffffffffffffffffffffffffffff1673ffffffffffffffffffffffffffffffffffffffff16815260200190815260200160002060008573ffffffffffffffffffffffffffffffffffffffff1673ffffffffffffffffffffffffffffffffffffffff16815260200190815260200160002060020160006101000a81548160ff02191690831515021790555060006002600160003373ffffffffffffffffffffffffffffffffffffffff1673ffffffffffffffffffffffffffffffffffffffff1681526020019081526020016000206002015481548110610ed957610ed8611964565b5b90600052602060002090600402016000016000803373ffffffffffffffffffffffffffffffffffffffff1673ffffffffffffffffffffffffffffffffffffffff16815260200190815260200160002060008673ffffffffffffffffffffffffffffffffffffffff1673ffffffffffffffffffffffffffffffffffffffff1681526020019081526020016000206001015481548110610f7a57610f79611964565b5b906000526020600020906003020160020160006101000a81548160ff021916908315150217905550611160565b60016000803373ffffffffffffffffffffffffffffffffffffffff1673ffffffffffffffffffffffffffffffffffffffff16815260200190815260200160002060008573ffffffffffffffffffffffffffffffffffffffff1673ffffffffffffffffffffffffffffffffffffffff16815260200190815260200160002060020160006101000a81548160ff02191690831515021790555060016002600160003373ffffffffffffffffffffffffffffffffffffffff1673ffffffffffffffffffffffffffffffffffffffff168152602001908152602001600020600201548154811061109657611095611964565b5b90600052602060002090600402016000016000803373ffffffffffffffffffffffffffffffffffffffff1673ffffffffffffffffffffffffffffffffffffffff16815260200190815260200160002060008673ffffffffffffffffffffffffffffffffffffffff1673ffffffffffffffffffffffffffffffffffffffff168152602001908152602001600020600101548154811061113757611136611964565b5b906000526020600020906003020160020160006101000a81548160ff0219169083151502179055505b600190505b92915050565b60606002805480602002602001604051908101604052809291908181526020016000905b82821015611333578382906000526020600020906004020160405180608001604052908160008201805480602002602001604051908101604052809291908181526020016000905b828210156112a157838290600052602060002090600302016040518060800160405290816000820160009054906101000a900473ffffffffffffffffffffffffffffffffffffffff1673ffffffffffffffffffffffffffffffffffffffff1673ffffffffffffffffffffffffffffffffffffffff1681526020016000820160149054906101000a900460030b60030b60030b8152602001600182015481526020016002820160009054906101000a900460ff161515151581525050815260200190600101906111d7565b5050505081526020016001820160009054906101000a900473ffffffffffffffffffffffffffffffffffffffff1673ffffffffffffffffffffffffffffffffffffffff1673ffffffffffffffffffffffffffffffffffffffff168152602001600282015481526020016003820160009054906101000a900460ff1615151515815250508152602001906001019061118f565b50505050905090565b8280548282559060005260206000209060030281019282156114585760005260206000209160030282015b828111156114575782826000820160009054906101000a900473ffffffffffffffffffffffffffffffffffffffff168160000160006101000a81548173ffffffffffffffffffffffffffffffffffffffff021916908373ffffffffffffffffffffffffffffffffffffffff1602179055506000820160149054906101000a900460030b8160000160146101000a81548163ffffffff021916908360030b63ffffffff160217905550600182015481600101556002820160009054906101000a900460ff168160020160006101000a81548160ff021916908315150217905550505091600301919060030190611367565b5b5090506114659190611469565b5090565b5b808211156114d657600080820160006101000a81549073ffffffffffffffffffffffffffffffffffffffff02191690556000820160146101000a81549063ffffffff021916905560018201600090556002820160006101000a81549060ff02191690555060030161146a565b5090565b600080fd5b600073ffffffffffffffffffffffffffffffffffffffff82169050919050565b600061150a826114df565b9050919050565b61151a816114ff565b811461152557600080fd5b50565b60008135905061153781611511565b92915050565b60008060408385031215611554576115536114da565b5b600061156285828601611528565b925050602061157385828601611528565b9150509250929050565b60008160030b9050919050565b6115938161157d565b82525050565b60006020820190506115ae600083018461158a565b92915050565b6115bd8161157d565b81146115c857600080fd5b50565b6000813590506115da816115b4565b92915050565b600080604083850312156115f7576115f66114da565b5b600061160585828601611528565b9250506020611616858286016115cb565b9150509250929050565b60008115159050919050565b61163581611620565b82525050565b6000602082019050611650600083018461162c565b92915050565b600081519050919050565b600082825260208201905092915050565b6000819050602082019050919050565b600081519050919050565b600082825260208201905092915050565b6000819050602082019050919050565b6116b7816114ff565b82525050565b6116c68161157d565b82525050565b6000819050919050565b6116df816116cc565b82525050565b6116ee81611620565b82525050565b60808201600082015161170a60008501826116ae565b50602082015161171d60208501826116bd565b50604082015161173060408501826116d6565b50606082015161174360608501826116e5565b50505050565b600061175583836116f4565b60808301905092915050565b6000602082019050919050565b600061177982611682565b611783818561168d565b935061178e8361169e565b8060005b838110156117bf5781516117a68882611749565b97506117b183611761565b925050600181019050611792565b5085935050505092915050565b600060808301600083015184820360008601526117e9828261176e565b91505060208301516117fe60208601826116ae565b50604083015161181160408601826116d6565b50606083015161182460608601826116e5565b508091505092915050565b600061183b83836117cc565b905092915050565b6000602082019050919050565b600061185b82611656565b6118658185611661565b93508360208202850161187785611672565b8060005b858110156118b35784840389528151611894858261182f565b945061189f83611843565b925060208a0199505060018101905061187b565b50829750879550505050505092915050565b600060208201905081810360008301526118df8184611850565b905092915050565b600082825260208201905092915050565b7f63616e6e6f74206f776520746f2073656c660000000000000000000000000000600082015250565b600061192e6012836118e7565b9150611939826118f8565b602082019050919050565b6000602082019050818103600083015261195d81611921565b9050919050565b7f4e487b7100000000000000000000000000000000000000000000000000000000600052603260045260246000fd5b7f4e487b7100000000000000000000000000000000000000000000000000000000600052601160045260246000fd5b60006119cd8261157d565b91506119d88361157d565b925082820190507fffffffffffffffffffffffffffffffffffffffffffffffffffffffff800000008112637fffffff82131715611a1857611a17611993565b5b92915050565b7f6e6567617469766520494f550000000000000000000000000000000000000000600082015250565b6000611a54600c836118e7565b9150611a5f82611a1e565b602082019050919050565b60006020820190508181036000830152611a8381611a47565b905091905056fea264697066735822122059b6cd8a7d14f20ad2ea8522cd6a975b443b307b685aca5b7404fe8d108aa27c64736f6c63430008110033",
  "linkReferences": {},
  "deployedLinkReferences": {}
}